{
  "_format": "hh-sol-artifact-1",
  "contractName": "NFTDegree",
  "sourceName": "contracts/NFTDegree.sol",
  "abi": [
    {
      "inputs": [],
      "stateMutability": "nonpayable",
      "type": "constructor"
    },
    {
      "anonymous": false,
      "inputs": [
        {
          "indexed": true,
          "internalType": "address",
          "name": "owner",
          "type": "address"
        },
        {
          "indexed": true,
          "internalType": "address",
          "name": "approved",
          "type": "address"
        },
        {
          "indexed": true,
          "internalType": "uint256",
          "name": "tokenId",
          "type": "uint256"
        }
      ],
      "name": "Approval",
      "type": "event"
    },
    {
      "anonymous": false,
      "inputs": [
        {
          "indexed": true,
          "internalType": "address",
          "name": "owner",
          "type": "address"
        },
        {
          "indexed": true,
          "internalType": "address",
          "name": "operator",
          "type": "address"
        },
        {
          "indexed": false,
          "internalType": "bool",
          "name": "approved",
          "type": "bool"
        }
      ],
      "name": "ApprovalForAll",
      "type": "event"
    },
    {
      "anonymous": false,
      "inputs": [
        {
          "indexed": true,
          "internalType": "address",
          "name": "from",
          "type": "address"
        },
        {
          "indexed": true,
          "internalType": "address",
          "name": "to",
          "type": "address"
        },
        {
          "indexed": true,
          "internalType": "uint256",
          "name": "tokenId",
          "type": "uint256"
        }
      ],
      "name": "Transfer",
      "type": "event"
    },
    {
      "inputs": [
        {
          "internalType": "address",
          "name": "to",
          "type": "address"
        },
        {
          "internalType": "uint256",
          "name": "tokenId",
          "type": "uint256"
        }
      ],
      "name": "approve",
      "outputs": [],
      "stateMutability": "nonpayable",
      "type": "function"
    },
    {
      "inputs": [
        {
          "internalType": "address",
          "name": "owner",
          "type": "address"
        }
      ],
      "name": "balanceOf",
      "outputs": [
        {
          "internalType": "uint256",
          "name": "",
          "type": "uint256"
        }
      ],
      "stateMutability": "view",
      "type": "function"
    },
    {
      "inputs": [
        {
          "internalType": "address",
          "name": "add_owner",
          "type": "address"
        },
        {
          "internalType": "uint256",
          "name": "_tokenId",
          "type": "uint256"
        },
        {
          "internalType": "string",
          "name": "name",
          "type": "string"
        },
        {
          "internalType": "string",
          "name": "metadataURI",
          "type": "string"
        }
      ],
      "name": "createNFT",
      "outputs": [],
      "stateMutability": "nonpayable",
      "type": "function"
    },
    {
      "inputs": [
        {
          "internalType": "uint256",
          "name": "tokenId",
          "type": "uint256"
        }
      ],
      "name": "getApproved",
      "outputs": [
        {
          "internalType": "address",
          "name": "",
          "type": "address"
        }
      ],
      "stateMutability": "view",
      "type": "function"
    },
    {
      "inputs": [
        {
          "internalType": "uint256",
          "name": "tokenId",
          "type": "uint256"
        }
      ],
      "name": "getNFT",
      "outputs": [
        {
          "internalType": "string",
          "name": "",
          "type": "string"
        },
        {
          "internalType": "string",
          "name": "",
          "type": "string"
        }
      ],
      "stateMutability": "view",
      "type": "function"
    },
    {
      "inputs": [
        {
          "internalType": "address",
          "name": "owner",
          "type": "address"
        },
        {
          "internalType": "address",
          "name": "operator",
          "type": "address"
        }
      ],
      "name": "isApprovedForAll",
      "outputs": [
        {
          "internalType": "bool",
          "name": "",
          "type": "bool"
        }
      ],
      "stateMutability": "view",
      "type": "function"
    },
    {
      "inputs": [],
      "name": "name",
      "outputs": [
        {
          "internalType": "string",
          "name": "",
          "type": "string"
        }
      ],
      "stateMutability": "view",
      "type": "function"
    },
    {
      "inputs": [
        {
          "internalType": "uint256",
          "name": "tokenId",
          "type": "uint256"
        }
      ],
      "name": "ownerOf",
      "outputs": [
        {
          "internalType": "address",
          "name": "",
          "type": "address"
        }
      ],
      "stateMutability": "view",
      "type": "function"
    },
    {
      "inputs": [
        {
          "internalType": "address",
          "name": "from",
          "type": "address"
        },
        {
          "internalType": "address",
          "name": "to",
          "type": "address"
        },
        {
          "internalType": "uint256",
          "name": "tokenId",
          "type": "uint256"
        }
      ],
      "name": "safeTransferFrom",
      "outputs": [],
      "stateMutability": "nonpayable",
      "type": "function"
    },
    {
      "inputs": [
        {
          "internalType": "address",
          "name": "from",
          "type": "address"
        },
        {
          "internalType": "address",
          "name": "to",
          "type": "address"
        },
        {
          "internalType": "uint256",
          "name": "tokenId",
          "type": "uint256"
        },
        {
          "internalType": "bytes",
          "name": "data",
          "type": "bytes"
        }
      ],
      "name": "safeTransferFrom",
      "outputs": [],
      "stateMutability": "nonpayable",
      "type": "function"
    },
    {
      "inputs": [
        {
          "internalType": "address",
          "name": "operator",
          "type": "address"
        },
        {
          "internalType": "bool",
          "name": "approved",
          "type": "bool"
        }
      ],
      "name": "setApprovalForAll",
      "outputs": [],
      "stateMutability": "nonpayable",
      "type": "function"
    },
    {
      "inputs": [
        {
          "internalType": "bytes4",
          "name": "interfaceId",
          "type": "bytes4"
        }
      ],
      "name": "supportsInterface",
      "outputs": [
        {
          "internalType": "bool",
          "name": "",
          "type": "bool"
        }
      ],
      "stateMutability": "view",
      "type": "function"
    },
    {
      "inputs": [],
      "name": "symbol",
      "outputs": [
        {
          "internalType": "string",
          "name": "",
          "type": "string"
        }
      ],
      "stateMutability": "view",
      "type": "function"
    },
    {
      "inputs": [
        {
          "internalType": "uint256",
          "name": "tokenId",
          "type": "uint256"
        }
      ],
      "name": "tokenURI",
      "outputs": [
        {
          "internalType": "string",
          "name": "",
          "type": "string"
        }
      ],
      "stateMutability": "view",
      "type": "function"
    },
    {
      "inputs": [
        {
          "internalType": "address",
          "name": "from",
          "type": "address"
        },
        {
          "internalType": "address",
          "name": "to",
          "type": "address"
        },
        {
          "internalType": "uint256",
          "name": "tokenId",
          "type": "uint256"
        }
      ],
      "name": "transferFrom",
      "outputs": [],
      "stateMutability": "nonpayable",
      "type": "function"
    }
  ],
  "bytecode": "0x60806040523480156200001157600080fd5b506040518060400160405280600681526020017f44656772656500000000000000000000000000000000000000000000000000008152506040518060400160405280600681526020017f4465654e4654000000000000000000000000000000000000000000000000000081525081600090816200008f919062000324565b508060019081620000a1919062000324565b5050506200040b565b600081519050919050565b7f4e487b7100000000000000000000000000000000000000000000000000000000600052604160045260246000fd5b7f4e487b7100000000000000000000000000000000000000000000000000000000600052602260045260246000fd5b600060028204905060018216806200012c57607f821691505b602082108103620001425762000141620000e4565b5b50919050565b60008190508160005260206000209050919050565b60006020601f8301049050919050565b600082821b905092915050565b600060088302620001ac7fffffffffffffffffffffffffffffffffffffffffffffffffffffffffffffffff826200016d565b620001b886836200016d565b95508019841693508086168417925050509392505050565b6000819050919050565b6000819050919050565b600062000205620001ff620001f984620001d0565b620001da565b620001d0565b9050919050565b6000819050919050565b6200022183620001e4565b6200023962000230826200020c565b8484546200017a565b825550505050565b600090565b6200025062000241565b6200025d81848462000216565b505050565b5b8181101562000285576200027960008262000246565b60018101905062000263565b5050565b601f821115620002d4576200029e8162000148565b620002a9846200015d565b81016020851015620002b9578190505b620002d1620002c8856200015d565b83018262000262565b50505b505050565b600082821c905092915050565b6000620002f960001984600802620002d9565b1980831691505092915050565b6000620003148383620002e6565b9150826002028217905092915050565b6200032f82620000aa565b67ffffffffffffffff8111156200034b576200034a620000b5565b5b62000357825462000113565b6200036482828562000289565b600060209050601f8311600181146200039c576000841562000387578287015190505b62000393858262000306565b86555062000403565b601f198416620003ac8662000148565b60005b82811015620003d657848901518255600182019150602085019450602081019050620003af565b86831015620003f65784890151620003f2601f891682620002e6565b8355505b6001600288020188555050505b505050505050565b612b61806200041b6000396000f3fe608060405234801561001057600080fd5b50600436106100f55760003560e01c80636352211e11610097578063a22cb46511610066578063a22cb46514610297578063b88d4fde146102b3578063c87b56dd146102cf578063e985e9c5146102ff576100f5565b80636352211e146101fd57806370a082311461022d5780637d80ad8b1461025d57806395d89b4114610279576100f5565b8063095ea7b3116100d3578063095ea7b31461017857806323b872dd1461019457806342842e0e146101b0578063576f7ea7146101cc576100f5565b806301ffc9a7146100fa57806306fdde031461012a578063081812fc14610148575b600080fd5b610114600480360381019061010f91906119fc565b61032f565b6040516101219190611a44565b60405180910390f35b610132610411565b60405161013f9190611aef565b60405180910390f35b610162600480360381019061015d9190611b47565b6104a3565b60405161016f9190611bb5565b60405180910390f35b610192600480360381019061018d9190611bfc565b6104e9565b005b6101ae60048036038101906101a99190611c3c565b610600565b005b6101ca60048036038101906101c59190611c3c565b610660565b005b6101e660048036038101906101e19190611b47565b610680565b6040516101f4929190611c8f565b60405180910390f35b61021760048036038101906102129190611b47565b610818565b6040516102249190611bb5565b60405180910390f35b61024760048036038101906102429190611cc6565b61089e565b6040516102549190611d02565b60405180910390f35b61027760048036038101906102729190611e52565b610955565b005b6102816109bc565b60405161028e9190611aef565b60405180910390f35b6102b160048036038101906102ac9190611f1d565b610a4e565b005b6102cd60048036038101906102c89190611ffe565b610a64565b005b6102e960048036038101906102e49190611b47565b610ac6565b6040516102f69190611aef565b60405180910390f35b61031960048036038101906103149190612081565b610b2e565b6040516103269190611a44565b60405180910390f35b60007f80ac58cd000000000000000000000000000000000000000000000000000000007bffffffffffffffffffffffffffffffffffffffffffffffffffffffff1916827bffffffffffffffffffffffffffffffffffffffffffffffffffffffff191614806103fa57507f5b5e139f000000000000000000000000000000000000000000000000000000007bffffffffffffffffffffffffffffffffffffffffffffffffffffffff1916827bffffffffffffffffffffffffffffffffffffffffffffffffffffffff1916145b8061040a575061040982610bc2565b5b9050919050565b606060008054610420906120f0565b80601f016020809104026020016040519081016040528092919081815260200182805461044c906120f0565b80156104995780601f1061046e57610100808354040283529160200191610499565b820191906000526020600020905b81548152906001019060200180831161047c57829003601f168201915b5050505050905090565b60006104ae82610c2c565b6004600083815260200190815260200160002060009054906101000a900473ffffffffffffffffffffffffffffffffffffffff169050919050565b60006104f482610818565b90508073ffffffffffffffffffffffffffffffffffffffff168373ffffffffffffffffffffffffffffffffffffffff1603610564576040517f08c379a000000000000000000000000000000000000000000000000000000000815260040161055b90612193565b60405180910390fd5b8073ffffffffffffffffffffffffffffffffffffffff16610583610c77565b73ffffffffffffffffffffffffffffffffffffffff1614806105b257506105b1816105ac610c77565b610b2e565b5b6105f1576040517f08c379a00000000000000000000000000000000000000000000000000000000081526004016105e890612225565b60405180910390fd5b6105fb8383610c7f565b505050565b61061161060b610c77565b82610d38565b610650576040517f08c379a0000000000000000000000000000000000000000000000000000000008152600401610647906122b7565b60405180910390fd5b61065b838383610dcd565b505050565b61067b83838360405180602001604052806000815250610a64565b505050565b60608061068c836110c6565b6106cb576040517f08c379a00000000000000000000000000000000000000000000000000000000081526004016106c290612323565b60405180910390fd5b6006600084815260200190815260200160002060000160066000858152602001908152602001600020600101818054610703906120f0565b80601f016020809104026020016040519081016040528092919081815260200182805461072f906120f0565b801561077c5780601f106107515761010080835404028352916020019161077c565b820191906000526020600020905b81548152906001019060200180831161075f57829003601f168201915b5050505050915080805461078f906120f0565b80601f01602080910402602001604051908101604052809291908181526020018280546107bb906120f0565b80156108085780601f106107dd57610100808354040283529160200191610808565b820191906000526020600020905b8154815290600101906020018083116107eb57829003601f168201915b5050505050905091509150915091565b60008061082483611107565b9050600073ffffffffffffffffffffffffffffffffffffffff168173ffffffffffffffffffffffffffffffffffffffff1603610895576040517f08c379a000000000000000000000000000000000000000000000000000000000815260040161088c9061238f565b60405180910390fd5b80915050919050565b60008073ffffffffffffffffffffffffffffffffffffffff168273ffffffffffffffffffffffffffffffffffffffff160361090e576040517f08c379a000000000000000000000000000000000000000000000000000000000815260040161090590612421565b60405180910390fd5b600360008373ffffffffffffffffffffffffffffffffffffffff1673ffffffffffffffffffffffffffffffffffffffff168152602001908152602001600020549050919050565b61095f8484611144565b60405180604001604052808381526020018281525060066000858152602001908152602001600020600082015181600001908161099c91906125ed565b5060208201518160010190816109b291906125ed565b5090505050505050565b6060600180546109cb906120f0565b80601f01602080910402602001604051908101604052809291908181526020018280546109f7906120f0565b8015610a445780601f10610a1957610100808354040283529160200191610a44565b820191906000526020600020905b815481529060010190602001808311610a2757829003601f168201915b5050505050905090565b610a60610a59610c77565b8383611162565b5050565b610a75610a6f610c77565b83610d38565b610ab4576040517f08c379a0000000000000000000000000000000000000000000000000000000008152600401610aab906122b7565b60405180910390fd5b610ac0848484846112ce565b50505050565b6060610ad182610c2c565b6000610adb61132a565b90506000815111610afb5760405180602001604052806000815250610b26565b80610b0584611341565b604051602001610b169291906126fb565b6040516020818303038152906040525b915050919050565b6000600560008473ffffffffffffffffffffffffffffffffffffffff1673ffffffffffffffffffffffffffffffffffffffff16815260200190815260200160002060008373ffffffffffffffffffffffffffffffffffffffff1673ffffffffffffffffffffffffffffffffffffffff16815260200190815260200160002060009054906101000a900460ff16905092915050565b60007f01ffc9a7000000000000000000000000000000000000000000000000000000007bffffffffffffffffffffffffffffffffffffffffffffffffffffffff1916827bffffffffffffffffffffffffffffffffffffffffffffffffffffffff1916149050919050565b610c35816110c6565b610c74576040517f08c379a0000000000000000000000000000000000000000000000000000000008152600401610c6b9061238f565b60405180910390fd5b50565b600033905090565b816004600083815260200190815260200160002060006101000a81548173ffffffffffffffffffffffffffffffffffffffff021916908373ffffffffffffffffffffffffffffffffffffffff160217905550808273ffffffffffffffffffffffffffffffffffffffff16610cf283610818565b73ffffffffffffffffffffffffffffffffffffffff167f8c5be1e5ebec7d5bd14f71427d1e84f3dd0314c0f7b2291e5b200ac8c7c3b92560405160405180910390a45050565b600080610d4483610818565b90508073ffffffffffffffffffffffffffffffffffffffff168473ffffffffffffffffffffffffffffffffffffffff161480610d865750610d858185610b2e565b5b80610dc457508373ffffffffffffffffffffffffffffffffffffffff16610dac846104a3565b73ffffffffffffffffffffffffffffffffffffffff16145b91505092915050565b8273ffffffffffffffffffffffffffffffffffffffff16610ded82610818565b73ffffffffffffffffffffffffffffffffffffffff1614610e43576040517f08c379a0000000000000000000000000000000000000000000000000000000008152600401610e3a90612791565b60405180910390fd5b600073ffffffffffffffffffffffffffffffffffffffff168273ffffffffffffffffffffffffffffffffffffffff1603610eb2576040517f08c379a0000000000000000000000000000000000000000000000000000000008152600401610ea990612823565b60405180910390fd5b610ebf838383600161140f565b8273ffffffffffffffffffffffffffffffffffffffff16610edf82610818565b73ffffffffffffffffffffffffffffffffffffffff1614610f35576040517f08c379a0000000000000000000000000000000000000000000000000000000008152600401610f2c90612791565b60405180910390fd5b6004600082815260200190815260200160002060006101000a81549073ffffffffffffffffffffffffffffffffffffffff02191690556001600360008573ffffffffffffffffffffffffffffffffffffffff1673ffffffffffffffffffffffffffffffffffffffff168152602001908152602001600020600082825403925050819055506001600360008473ffffffffffffffffffffffffffffffffffffffff1673ffffffffffffffffffffffffffffffffffffffff16815260200190815260200160002060008282540192505081905550816002600083815260200190815260200160002060006101000a81548173ffffffffffffffffffffffffffffffffffffffff021916908373ffffffffffffffffffffffffffffffffffffffff160217905550808273ffffffffffffffffffffffffffffffffffffffff168473ffffffffffffffffffffffffffffffffffffffff167fddf252ad1be2c89b69c2b068fc378daa952ba7f163c4a11628f55a4df523b3ef60405160405180910390a46110c18383836001611415565b505050565b60008073ffffffffffffffffffffffffffffffffffffffff166110e883611107565b73ffffffffffffffffffffffffffffffffffffffff1614159050919050565b60006002600083815260200190815260200160002060009054906101000a900473ffffffffffffffffffffffffffffffffffffffff169050919050565b61115e82826040518060200160405280600081525061141b565b5050565b8173ffffffffffffffffffffffffffffffffffffffff168373ffffffffffffffffffffffffffffffffffffffff16036111d0576040517f08c379a00000000000000000000000000000000000000000000000000000000081526004016111c79061288f565b60405180910390fd5b80600560008573ffffffffffffffffffffffffffffffffffffffff1673ffffffffffffffffffffffffffffffffffffffff16815260200190815260200160002060008473ffffffffffffffffffffffffffffffffffffffff1673ffffffffffffffffffffffffffffffffffffffff16815260200190815260200160002060006101000a81548160ff0219169083151502179055508173ffffffffffffffffffffffffffffffffffffffff168373ffffffffffffffffffffffffffffffffffffffff167f17307eab39ab6107e8899845ad3d59bd9653f200f220920489ca2b5937696c31836040516112c19190611a44565b60405180910390a3505050565b6112d9848484610dcd565b6112e584848484611476565b611324576040517f08c379a000000000000000000000000000000000000000000000000000000000815260040161131b90612921565b60405180910390fd5b50505050565b606060405180602001604052806000815250905090565b606060006001611350846115fd565b01905060008167ffffffffffffffff81111561136f5761136e611d27565b5b6040519080825280601f01601f1916602001820160405280156113a15781602001600182028036833780820191505090505b509050600082602001820190505b600115611404578080600190039150507f3031323334353637383961626364656600000000000000000000000000000000600a86061a8153600a85816113f8576113f7612941565b5b049450600085036113af575b819350505050919050565b50505050565b50505050565b6114258383611750565b6114326000848484611476565b611471576040517f08c379a000000000000000000000000000000000000000000000000000000000815260040161146890612921565b60405180910390fd5b505050565b60006114978473ffffffffffffffffffffffffffffffffffffffff1661196d565b156115f0578373ffffffffffffffffffffffffffffffffffffffff1663150b7a026114c0610c77565b8786866040518563ffffffff1660e01b81526004016114e294939291906129c5565b6020604051808303816000875af192505050801561151e57506040513d601f19601f8201168201806040525081019061151b9190612a26565b60015b6115a0573d806000811461154e576040519150601f19603f3d011682016040523d82523d6000602084013e611553565b606091505b506000815103611598576040517f08c379a000000000000000000000000000000000000000000000000000000000815260040161158f90612921565b60405180910390fd5b805181602001fd5b63150b7a0260e01b7bffffffffffffffffffffffffffffffffffffffffffffffffffffffff1916817bffffffffffffffffffffffffffffffffffffffffffffffffffffffff1916149150506115f5565b600190505b949350505050565b600080600090507a184f03e93ff9f4daa797ed6e38ed64bf6a1f010000000000000000831061165b577a184f03e93ff9f4daa797ed6e38ed64bf6a1f010000000000000000838161165157611650612941565b5b0492506040810190505b6d04ee2d6d415b85acef81000000008310611698576d04ee2d6d415b85acef8100000000838161168e5761168d612941565b5b0492506020810190505b662386f26fc1000083106116c757662386f26fc1000083816116bd576116bc612941565b5b0492506010810190505b6305f5e10083106116f0576305f5e10083816116e6576116e5612941565b5b0492506008810190505b612710831061171557612710838161170b5761170a612941565b5b0492506004810190505b60648310611738576064838161172e5761172d612941565b5b0492506002810190505b600a8310611747576001810190505b80915050919050565b600073ffffffffffffffffffffffffffffffffffffffff168273ffffffffffffffffffffffffffffffffffffffff16036117bf576040517f08c379a00000000000000000000000000000000000000000000000000000000081526004016117b690612a9f565b60405180910390fd5b6117c8816110c6565b15611808576040517f08c379a00000000000000000000000000000000000000000000000000000000081526004016117ff90612b0b565b60405180910390fd5b61181660008383600161140f565b61181f816110c6565b1561185f576040517f08c379a000000000000000000000000000000000000000000000000000000000815260040161185690612b0b565b60405180910390fd5b6001600360008473ffffffffffffffffffffffffffffffffffffffff1673ffffffffffffffffffffffffffffffffffffffff16815260200190815260200160002060008282540192505081905550816002600083815260200190815260200160002060006101000a81548173ffffffffffffffffffffffffffffffffffffffff021916908373ffffffffffffffffffffffffffffffffffffffff160217905550808273ffffffffffffffffffffffffffffffffffffffff16600073ffffffffffffffffffffffffffffffffffffffff167fddf252ad1be2c89b69c2b068fc378daa952ba7f163c4a11628f55a4df523b3ef60405160405180910390a4611969600083836001611415565b5050565b6000808273ffffffffffffffffffffffffffffffffffffffff163b119050919050565b6000604051905090565b600080fd5b600080fd5b60007fffffffff0000000000000000000000000000000000000000000000000000000082169050919050565b6119d9816119a4565b81146119e457600080fd5b50565b6000813590506119f6816119d0565b92915050565b600060208284031215611a1257611a1161199a565b5b6000611a20848285016119e7565b91505092915050565b60008115159050919050565b611a3e81611a29565b82525050565b6000602082019050611a596000830184611a35565b92915050565b600081519050919050565b600082825260208201905092915050565b60005b83811015611a99578082015181840152602081019050611a7e565b60008484015250505050565b6000601f19601f8301169050919050565b6000611ac182611a5f565b611acb8185611a6a565b9350611adb818560208601611a7b565b611ae481611aa5565b840191505092915050565b60006020820190508181036000830152611b098184611ab6565b905092915050565b6000819050919050565b611b2481611b11565b8114611b2f57600080fd5b50565b600081359050611b4181611b1b565b92915050565b600060208284031215611b5d57611b5c61199a565b5b6000611b6b84828501611b32565b91505092915050565b600073ffffffffffffffffffffffffffffffffffffffff82169050919050565b6000611b9f82611b74565b9050919050565b611baf81611b94565b82525050565b6000602082019050611bca6000830184611ba6565b92915050565b611bd981611b94565b8114611be457600080fd5b50565b600081359050611bf681611bd0565b92915050565b60008060408385031215611c1357611c1261199a565b5b6000611c2185828601611be7565b9250506020611c3285828601611b32565b9150509250929050565b600080600060608486031215611c5557611c5461199a565b5b6000611c6386828701611be7565b9350506020611c7486828701611be7565b9250506040611c8586828701611b32565b9150509250925092565b60006040820190508181036000830152611ca98185611ab6565b90508181036020830152611cbd8184611ab6565b90509392505050565b600060208284031215611cdc57611cdb61199a565b5b6000611cea84828501611be7565b91505092915050565b611cfc81611b11565b82525050565b6000602082019050611d176000830184611cf3565b92915050565b600080fd5b600080fd5b7f4e487b7100000000000000000000000000000000000000000000000000000000600052604160045260246000fd5b611d5f82611aa5565b810181811067ffffffffffffffff82111715611d7e57611d7d611d27565b5b80604052505050565b6000611d91611990565b9050611d9d8282611d56565b919050565b600067ffffffffffffffff821115611dbd57611dbc611d27565b5b611dc682611aa5565b9050602081019050919050565b82818337600083830152505050565b6000611df5611df084611da2565b611d87565b905082815260208101848484011115611e1157611e10611d22565b5b611e1c848285611dd3565b509392505050565b600082601f830112611e3957611e38611d1d565b5b8135611e49848260208601611de2565b91505092915050565b60008060008060808587031215611e6c57611e6b61199a565b5b6000611e7a87828801611be7565b9450506020611e8b87828801611b32565b935050604085013567ffffffffffffffff811115611eac57611eab61199f565b5b611eb887828801611e24565b925050606085013567ffffffffffffffff811115611ed957611ed861199f565b5b611ee587828801611e24565b91505092959194509250565b611efa81611a29565b8114611f0557600080fd5b50565b600081359050611f1781611ef1565b92915050565b60008060408385031215611f3457611f3361199a565b5b6000611f4285828601611be7565b9250506020611f5385828601611f08565b9150509250929050565b600067ffffffffffffffff821115611f7857611f77611d27565b5b611f8182611aa5565b9050602081019050919050565b6000611fa1611f9c84611f5d565b611d87565b905082815260208101848484011115611fbd57611fbc611d22565b5b611fc8848285611dd3565b509392505050565b600082601f830112611fe557611fe4611d1d565b5b8135611ff5848260208601611f8e565b91505092915050565b600080600080608085870312156120185761201761199a565b5b600061202687828801611be7565b945050602061203787828801611be7565b935050604061204887828801611b32565b925050606085013567ffffffffffffffff8111156120695761206861199f565b5b61207587828801611fd0565b91505092959194509250565b600080604083850312156120985761209761199a565b5b60006120a685828601611be7565b92505060206120b785828601611be7565b9150509250929050565b7f4e487b7100000000000000000000000000000000000000000000000000000000600052602260045260246000fd5b6000600282049050600182168061210857607f821691505b60208210810361211b5761211a6120c1565b5b50919050565b7f4552433732313a20617070726f76616c20746f2063757272656e74206f776e6560008201527f7200000000000000000000000000000000000000000000000000000000000000602082015250565b600061217d602183611a6a565b915061218882612121565b604082019050919050565b600060208201905081810360008301526121ac81612170565b9050919050565b7f4552433732313a20617070726f76652063616c6c6572206973206e6f7420746f60008201527f6b656e206f776e6572206f7220617070726f76656420666f7220616c6c000000602082015250565b600061220f603d83611a6a565b915061221a826121b3565b604082019050919050565b6000602082019050818103600083015261223e81612202565b9050919050565b7f4552433732313a2063616c6c6572206973206e6f7420746f6b656e206f776e6560008201527f72206f7220617070726f76656400000000000000000000000000000000000000602082015250565b60006122a1602d83611a6a565b91506122ac82612245565b604082019050919050565b600060208201905081810360008301526122d081612294565b9050919050565b7f456c204e4654206e6f2065786973746500000000000000000000000000000000600082015250565b600061230d601083611a6a565b9150612318826122d7565b602082019050919050565b6000602082019050818103600083015261233c81612300565b9050919050565b7f4552433732313a20696e76616c696420746f6b656e2049440000000000000000600082015250565b6000612379601883611a6a565b915061238482612343565b602082019050919050565b600060208201905081810360008301526123a88161236c565b9050919050565b7f4552433732313a2061646472657373207a65726f206973206e6f74206120766160008201527f6c6964206f776e65720000000000000000000000000000000000000000000000602082015250565b600061240b602983611a6a565b9150612416826123af565b604082019050919050565b6000602082019050818103600083015261243a816123fe565b9050919050565b60008190508160005260206000209050919050565b60006020601f8301049050919050565b600082821b905092915050565b6000600883026124a37fffffffffffffffffffffffffffffffffffffffffffffffffffffffffffffffff82612466565b6124ad8683612466565b95508019841693508086168417925050509392505050565b6000819050919050565b60006124ea6124e56124e084611b11565b6124c5565b611b11565b9050919050565b6000819050919050565b612504836124cf565b612518612510826124f1565b848454612473565b825550505050565b600090565b61252d612520565b6125388184846124fb565b505050565b5b8181101561255c57612551600082612525565b60018101905061253e565b5050565b601f8211156125a15761257281612441565b61257b84612456565b8101602085101561258a578190505b61259e61259685612456565b83018261253d565b50505b505050565b600082821c905092915050565b60006125c4600019846008026125a6565b1980831691505092915050565b60006125dd83836125b3565b9150826002028217905092915050565b6125f682611a5f565b67ffffffffffffffff81111561260f5761260e611d27565b5b61261982546120f0565b612624828285612560565b600060209050601f8311600181146126575760008415612645578287015190505b61264f85826125d1565b8655506126b7565b601f19841661266586612441565b60005b8281101561268d57848901518255600182019150602085019450602081019050612668565b868310156126aa57848901516126a6601f8916826125b3565b8355505b6001600288020188555050505b505050505050565b600081905092915050565b60006126d582611a5f565b6126df81856126bf565b93506126ef818560208601611a7b565b80840191505092915050565b600061270782856126ca565b915061271382846126ca565b91508190509392505050565b7f4552433732313a207472616e736665722066726f6d20696e636f72726563742060008201527f6f776e6572000000000000000000000000000000000000000000000000000000602082015250565b600061277b602583611a6a565b91506127868261271f565b604082019050919050565b600060208201905081810360008301526127aa8161276e565b9050919050565b7f4552433732313a207472616e7366657220746f20746865207a65726f2061646460008201527f7265737300000000000000000000000000000000000000000000000000000000602082015250565b600061280d602483611a6a565b9150612818826127b1565b604082019050919050565b6000602082019050818103600083015261283c81612800565b9050919050565b7f4552433732313a20617070726f766520746f2063616c6c657200000000000000600082015250565b6000612879601983611a6a565b915061288482612843565b602082019050919050565b600060208201905081810360008301526128a88161286c565b9050919050565b7f4552433732313a207472616e7366657220746f206e6f6e20455243373231526560008201527f63656976657220696d706c656d656e7465720000000000000000000000000000602082015250565b600061290b603283611a6a565b9150612916826128af565b604082019050919050565b6000602082019050818103600083015261293a816128fe565b9050919050565b7f4e487b7100000000000000000000000000000000000000000000000000000000600052601260045260246000fd5b600081519050919050565b600082825260208201905092915050565b600061299782612970565b6129a1818561297b565b93506129b1818560208601611a7b565b6129ba81611aa5565b840191505092915050565b60006080820190506129da6000830187611ba6565b6129e76020830186611ba6565b6129f46040830185611cf3565b8181036060830152612a06818461298c565b905095945050505050565b600081519050612a20816119d0565b92915050565b600060208284031215612a3c57612a3b61199a565b5b6000612a4a84828501612a11565b91505092915050565b7f4552433732313a206d696e7420746f20746865207a65726f2061646472657373600082015250565b6000612a89602083611a6a565b9150612a9482612a53565b602082019050919050565b60006020820190508181036000830152612ab881612a7c565b9050919050565b7f4552433732313a20746f6b656e20616c7265616479206d696e74656400000000600082015250565b6000612af5601c83611a6a565b9150612b0082612abf565b602082019050919050565b60006020820190508181036000830152612b2481612ae8565b905091905056fea2646970667358221220dca7c87e9b6a051e795233005a528940c3086fc4063edd6d175d928dc11688bd64736f6c63430008120033",
  "linkReferences": {},
  "deployedLinkReferences": {}
}